{
  "contractName": "Social",
  "abi": [
    {
      "inputs": [],
      "stateMutability": "nonpayable",
      "type": "constructor"
    },
    {
      "anonymous": false,
      "inputs": [
        {
          "indexed": true,
          "internalType": "address",
          "name": "owner",
          "type": "address"
        },
        {
          "indexed": true,
          "internalType": "address",
          "name": "approved",
          "type": "address"
        },
        {
          "indexed": true,
          "internalType": "uint256",
          "name": "tokenId",
          "type": "uint256"
        }
      ],
      "name": "Approval",
      "type": "event"
    },
    {
      "anonymous": false,
      "inputs": [
        {
          "indexed": true,
          "internalType": "address",
          "name": "owner",
          "type": "address"
        },
        {
          "indexed": true,
          "internalType": "address",
          "name": "operator",
          "type": "address"
        },
        {
          "indexed": false,
          "internalType": "bool",
          "name": "approved",
          "type": "bool"
        }
      ],
      "name": "ApprovalForAll",
      "type": "event"
    },
    {
      "anonymous": false,
      "inputs": [
        {
          "indexed": true,
          "internalType": "address",
          "name": "from",
          "type": "address"
        },
        {
          "indexed": true,
          "internalType": "address",
          "name": "to",
          "type": "address"
        },
        {
          "indexed": true,
          "internalType": "uint256",
          "name": "tokenId",
          "type": "uint256"
        }
      ],
      "name": "Transfer",
      "type": "event"
    },
    {
      "inputs": [
        {
          "internalType": "address",
          "name": "to",
          "type": "address"
        },
        {
          "internalType": "uint256",
          "name": "tokenId",
          "type": "uint256"
        }
      ],
      "name": "approve",
      "outputs": [],
      "stateMutability": "nonpayable",
      "type": "function"
    },
    {
      "inputs": [
        {
          "internalType": "address",
          "name": "owner",
          "type": "address"
        }
      ],
      "name": "balanceOf",
      "outputs": [
        {
          "internalType": "uint256",
          "name": "",
          "type": "uint256"
        }
      ],
      "stateMutability": "view",
      "type": "function"
    },
    {
      "inputs": [
        {
          "internalType": "uint256",
          "name": "tokenId",
          "type": "uint256"
        }
      ],
      "name": "getApproved",
      "outputs": [
        {
          "internalType": "address",
          "name": "",
          "type": "address"
        }
      ],
      "stateMutability": "view",
      "type": "function"
    },
    {
      "inputs": [
        {
          "internalType": "address",
          "name": "owner",
          "type": "address"
        },
        {
          "internalType": "address",
          "name": "operator",
          "type": "address"
        }
      ],
      "name": "isApprovedForAll",
      "outputs": [
        {
          "internalType": "bool",
          "name": "",
          "type": "bool"
        }
      ],
      "stateMutability": "view",
      "type": "function"
    },
    {
      "inputs": [],
      "name": "name",
      "outputs": [
        {
          "internalType": "string",
          "name": "",
          "type": "string"
        }
      ],
      "stateMutability": "view",
      "type": "function"
    },
    {
      "inputs": [
        {
          "internalType": "uint256",
          "name": "tokenId",
          "type": "uint256"
        }
      ],
      "name": "ownerOf",
      "outputs": [
        {
          "internalType": "address",
          "name": "",
          "type": "address"
        }
      ],
      "stateMutability": "view",
      "type": "function"
    },
    {
      "inputs": [
        {
          "internalType": "address",
          "name": "from",
          "type": "address"
        },
        {
          "internalType": "address",
          "name": "to",
          "type": "address"
        },
        {
          "internalType": "uint256",
          "name": "tokenId",
          "type": "uint256"
        }
      ],
      "name": "safeTransferFrom",
      "outputs": [],
      "stateMutability": "nonpayable",
      "type": "function"
    },
    {
      "inputs": [
        {
          "internalType": "address",
          "name": "from",
          "type": "address"
        },
        {
          "internalType": "address",
          "name": "to",
          "type": "address"
        },
        {
          "internalType": "uint256",
          "name": "tokenId",
          "type": "uint256"
        },
        {
          "internalType": "bytes",
          "name": "data",
          "type": "bytes"
        }
      ],
      "name": "safeTransferFrom",
      "outputs": [],
      "stateMutability": "nonpayable",
      "type": "function"
    },
    {
      "inputs": [
        {
          "internalType": "address",
          "name": "operator",
          "type": "address"
        },
        {
          "internalType": "bool",
          "name": "approved",
          "type": "bool"
        }
      ],
      "name": "setApprovalForAll",
      "outputs": [],
      "stateMutability": "nonpayable",
      "type": "function"
    },
    {
      "inputs": [
        {
          "internalType": "bytes4",
          "name": "interfaceId",
          "type": "bytes4"
        }
      ],
      "name": "supportsInterface",
      "outputs": [
        {
          "internalType": "bool",
          "name": "",
          "type": "bool"
        }
      ],
      "stateMutability": "view",
      "type": "function"
    },
    {
      "inputs": [],
      "name": "symbol",
      "outputs": [
        {
          "internalType": "string",
          "name": "",
          "type": "string"
        }
      ],
      "stateMutability": "view",
      "type": "function"
    },
    {
      "inputs": [
        {
          "internalType": "uint256",
          "name": "tokenId",
          "type": "uint256"
        }
      ],
      "name": "tokenURI",
      "outputs": [
        {
          "internalType": "string",
          "name": "",
          "type": "string"
        }
      ],
      "stateMutability": "view",
      "type": "function"
    },
    {
      "inputs": [
        {
          "internalType": "address",
          "name": "from",
          "type": "address"
        },
        {
          "internalType": "address",
          "name": "to",
          "type": "address"
        },
        {
          "internalType": "uint256",
          "name": "tokenId",
          "type": "uint256"
        }
      ],
      "name": "transferFrom",
      "outputs": [],
      "stateMutability": "nonpayable",
      "type": "function"
    },
    {
      "inputs": [
        {
          "internalType": "string",
          "name": "text",
          "type": "string"
        },
        {
          "internalType": "uint256",
          "name": "price",
          "type": "uint256"
        }
      ],
      "name": "post",
      "outputs": [],
      "stateMutability": "nonpayable",
      "type": "function"
    },
    {
      "inputs": [],
      "name": "getPosts",
      "outputs": [
        {
          "components": [
            {
              "internalType": "address",
              "name": "originalPoster",
              "type": "address"
            },
            {
              "internalType": "uint256",
              "name": "price",
              "type": "uint256"
            },
            {
              "internalType": "string",
              "name": "text",
              "type": "string"
            },
            {
              "internalType": "uint256",
              "name": "id",
              "type": "uint256"
            }
          ],
          "internalType": "struct Social.Post[]",
          "name": "",
          "type": "tuple[]"
        },
        {
          "internalType": "address[]",
          "name": "",
          "type": "address[]"
        }
      ],
      "stateMutability": "view",
      "type": "function"
    },
    {
      "inputs": [
        {
          "internalType": "uint256",
          "name": "postId",
          "type": "uint256"
        }
      ],
      "name": "purchase",
      "outputs": [],
      "stateMutability": "payable",
      "type": "function"
    }
  ],
  "bytecode": "0x60806040523480156200001157600080fd5b506040518060400160405280600a81526020017f536f6369616c44617070000000000000000000000000000000000000000000008152506040518060400160405280600381526020017f534450000000000000000000000000000000000000000000000000000000000081525081600090816200008f91906200032c565b508060019081620000a191906200032c565b505050600060068190555062000413565b600081519050919050565b7f4e487b7100000000000000000000000000000000000000000000000000000000600052604160045260246000fd5b7f4e487b7100000000000000000000000000000000000000000000000000000000600052602260045260246000fd5b600060028204905060018216806200013457607f821691505b6020821081036200014a5762000149620000ec565b5b50919050565b60008190508160005260206000209050919050565b60006020601f8301049050919050565b600082821b905092915050565b600060088302620001b47fffffffffffffffffffffffffffffffffffffffffffffffffffffffffffffffff8262000175565b620001c0868362000175565b95508019841693508086168417925050509392505050565b6000819050919050565b6000819050919050565b60006200020d620002076200020184620001d8565b620001e2565b620001d8565b9050919050565b6000819050919050565b6200022983620001ec565b62000241620002388262000214565b84845462000182565b825550505050565b600090565b6200025862000249565b620002658184846200021e565b505050565b5b818110156200028d57620002816000826200024e565b6001810190506200026b565b5050565b601f821115620002dc57620002a68162000150565b620002b18462000165565b81016020851015620002c1578190505b620002d9620002d08562000165565b8301826200026a565b50505b505050565b600082821c905092915050565b60006200030160001984600802620002e1565b1980831691505092915050565b60006200031c8383620002ee565b9150826002028217905092915050565b6200033782620000b2565b67ffffffffffffffff811115620003535762000352620000bd565b5b6200035f82546200011b565b6200036c82828562000291565b600060209050601f831160018114620003a457600084156200038f578287015190505b6200039b85826200030e565b8655506200040b565b601f198416620003b48662000150565b60005b82811015620003de57848901518255600182019150602085019450602081019050620003b7565b86831015620003fe5784890151620003fa601f891682620002ee565b8355505b6001600288020188555050505b505050505050565b6132aa80620004236000396000f3fe6080604052600436106100f35760003560e01c80636352211e1161008a578063b88d4fde11610059578063b88d4fde1461033b578063c87b56dd14610364578063e985e9c5146103a1578063efef39a1146103de576100f3565b80636352211e1461026d57806370a08231146102aa57806395d89b41146102e7578063a22cb46514610312576100f3565b806323b872dd116100c657806323b872dd146101c657806341f3004a146101ef57806342842e0e1461021b5780634e6c3c9514610244576100f3565b806301ffc9a7146100f857806306fdde0314610135578063081812fc14610160578063095ea7b31461019d575b600080fd5b34801561010457600080fd5b5061011f600480360381019061011a9190611ceb565b6103fa565b60405161012c9190611d33565b60405180910390f35b34801561014157600080fd5b5061014a6104dc565b6040516101579190611de7565b60405180910390f35b34801561016c57600080fd5b5061018760048036038101906101829190611e3f565b61056e565b6040516101949190611ead565b60405180910390f35b3480156101a957600080fd5b506101c460048036038101906101bf9190611ef4565b6105b4565b005b3480156101d257600080fd5b506101ed60048036038101906101e89190611f34565b6106cb565b005b3480156101fb57600080fd5b5061020461072b565b6040516102129291906121c3565b60405180910390f35b34801561022757600080fd5b50610242600480360381019061023d9190611f34565b6109de565b005b34801561025057600080fd5b5061026b6004803603810190610266919061232f565b6109fe565b005b34801561027957600080fd5b50610294600480360381019061028f9190611e3f565b610ae8565b6040516102a19190611ead565b60405180910390f35b3480156102b657600080fd5b506102d160048036038101906102cc919061238b565b610b99565b6040516102de91906123c7565b60405180910390f35b3480156102f357600080fd5b506102fc610c50565b6040516103099190611de7565b60405180910390f35b34801561031e57600080fd5b506103396004803603810190610334919061240e565b610ce2565b005b34801561034757600080fd5b50610362600480360381019061035d91906124ef565b610cf8565b005b34801561037057600080fd5b5061038b60048036038101906103869190611e3f565b610d5a565b6040516103989190611de7565b60405180910390f35b3480156103ad57600080fd5b506103c860048036038101906103c39190612572565b610dc2565b6040516103d59190611d33565b60405180910390f35b6103f860048036038101906103f39190611e3f565b610e56565b005b60007f80ac58cd000000000000000000000000000000000000000000000000000000007bffffffffffffffffffffffffffffffffffffffffffffffffffffffff1916827bffffffffffffffffffffffffffffffffffffffffffffffffffffffff191614806104c557507f5b5e139f000000000000000000000000000000000000000000000000000000007bffffffffffffffffffffffffffffffffffffffffffffffffffffffff1916827bffffffffffffffffffffffffffffffffffffffffffffffffffffffff1916145b806104d557506104d482611098565b5b9050919050565b6060600080546104eb906125e1565b80601f0160208091040260200160405190810160405280929190818152602001828054610517906125e1565b80156105645780601f1061053957610100808354040283529160200191610564565b820191906000526020600020905b81548152906001019060200180831161054757829003601f168201915b5050505050905090565b600061057982611102565b6004600083815260200190815260200160002060009054906101000a900473ffffffffffffffffffffffffffffffffffffffff169050919050565b60006105bf82610ae8565b90508073ffffffffffffffffffffffffffffffffffffffff168373ffffffffffffffffffffffffffffffffffffffff160361062f576040517f08c379a000000000000000000000000000000000000000000000000000000000815260040161062690612684565b60405180910390fd5b8073ffffffffffffffffffffffffffffffffffffffff1661064e61114d565b73ffffffffffffffffffffffffffffffffffffffff16148061067d575061067c8161067761114d565b610dc2565b5b6106bc576040517f08c379a00000000000000000000000000000000000000000000000000000000081526004016106b390612716565b60405180910390fd5b6106c68383611155565b505050565b6106dc6106d661114d565b8261120e565b61071b576040517f08c379a0000000000000000000000000000000000000000000000000000000008152600401610712906127a8565b60405180910390fd5b6107268383836112a3565b505050565b606080600060065467ffffffffffffffff81111561074c5761074b612204565b5b60405190808252806020026020018201604052801561078557816020015b610772611c41565b81526020019060019003908161076a5790505b509050600060065467ffffffffffffffff8111156107a6576107a5612204565b5b6040519080825280602002602001820160405280156107d45781602001602082028036833780820191505090505b50905060005b6006548110156109d1576000600760008381526020019081526020016000206040518060800160405290816000820160009054906101000a900473ffffffffffffffffffffffffffffffffffffffff1673ffffffffffffffffffffffffffffffffffffffff1673ffffffffffffffffffffffffffffffffffffffff16815260200160018201548152602001600282018054610874906125e1565b80601f01602080910402602001604051908101604052809291908181526020018280546108a0906125e1565b80156108ed5780601f106108c2576101008083540402835291602001916108ed565b820191906000526020600020905b8154815290600101906020018083116108d057829003601f168201915b5050505050815260200160038201548152505090506040518060800160405280826000015173ffffffffffffffffffffffffffffffffffffffff1681526020018260200151815260200182604001518152602001826060015181525084838151811061095c5761095b6127c8565b5b602002602001018190525061097082610ae8565b838381518110610983576109826127c8565b5b602002602001019073ffffffffffffffffffffffffffffffffffffffff16908173ffffffffffffffffffffffffffffffffffffffff16815250505080806109c990612826565b9150506107da565b5081819350935050509091565b6109f983838360405180602001604052806000815250610cf8565b505050565b610a0a33600654611509565b60405180608001604052803373ffffffffffffffffffffffffffffffffffffffff16815260200182815260200183815260200160065481525060076000600654815260200190815260200160002060008201518160000160006101000a81548173ffffffffffffffffffffffffffffffffffffffff021916908373ffffffffffffffffffffffffffffffffffffffff160217905550602082015181600101556040820151816002019081610abe9190612a1a565b506060820151816003015590505060066000815480929190610adf90612826565b91905055505050565b6000806002600084815260200190815260200160002060009054906101000a900473ffffffffffffffffffffffffffffffffffffffff169050600073ffffffffffffffffffffffffffffffffffffffff168173ffffffffffffffffffffffffffffffffffffffff1603610b90576040517f08c379a0000000000000000000000000000000000000000000000000000000008152600401610b8790612b38565b60405180910390fd5b80915050919050565b60008073ffffffffffffffffffffffffffffffffffffffff168273ffffffffffffffffffffffffffffffffffffffff1603610c09576040517f08c379a0000000000000000000000000000000000000000000000000000000008152600401610c0090612bca565b60405180910390fd5b600360008373ffffffffffffffffffffffffffffffffffffffff1673ffffffffffffffffffffffffffffffffffffffff168152602001908152602001600020549050919050565b606060018054610c5f906125e1565b80601f0160208091040260200160405190810160405280929190818152602001828054610c8b906125e1565b8015610cd85780601f10610cad57610100808354040283529160200191610cd8565b820191906000526020600020905b815481529060010190602001808311610cbb57829003601f168201915b5050505050905090565b610cf4610ced61114d565b83836116e2565b5050565b610d09610d0361114d565b8361120e565b610d48576040517f08c379a0000000000000000000000000000000000000000000000000000000008152600401610d3f906127a8565b60405180910390fd5b610d548484848461184e565b50505050565b6060610d6582611102565b6000610d6f6118aa565b90506000815111610d8f5760405180602001604052806000815250610dba565b80610d99846118c1565b604051602001610daa929190612c26565b6040516020818303038152906040525b915050919050565b6000600560008473ffffffffffffffffffffffffffffffffffffffff1673ffffffffffffffffffffffffffffffffffffffff16815260200190815260200160002060008373ffffffffffffffffffffffffffffffffffffffff1673ffffffffffffffffffffffffffffffffffffffff16815260200190815260200160002060009054906101000a900460ff16905092915050565b6000600760008381526020019081526020016000206040518060800160405290816000820160009054906101000a900473ffffffffffffffffffffffffffffffffffffffff1673ffffffffffffffffffffffffffffffffffffffff1673ffffffffffffffffffffffffffffffffffffffff16815260200160018201548152602001600282018054610ee6906125e1565b80601f0160208091040260200160405190810160405280929190818152602001828054610f12906125e1565b8015610f5f5780601f10610f3457610100808354040283529160200191610f5f565b820191906000526020600020905b815481529060010190602001808311610f4257829003601f168201915b505050505081526020016003820154815250509050600073ffffffffffffffffffffffffffffffffffffffff16816000015173ffffffffffffffffffffffffffffffffffffffff1603610fe7576040517f08c379a0000000000000000000000000000000000000000000000000000000008152600401610fde90612c96565b60405180910390fd5b806020015134101561102e576040517f08c379a000000000000000000000000000000000000000000000000000000000815260040161102590612d02565b60405180910390fd5b60006127106101f4346110419190612d22565b61104b9190612dab565b905081600001515061105c83610ae8565b73ffffffffffffffffffffffffffffffffffffffff16813461107e9190612ddc565b505061109361108c84610ae8565b33856112a3565b505050565b60007f01ffc9a7000000000000000000000000000000000000000000000000000000007bffffffffffffffffffffffffffffffffffffffffffffffffffffffff1916827bffffffffffffffffffffffffffffffffffffffffffffffffffffffff1916149050919050565b61110b81611a21565b61114a576040517f08c379a000000000000000000000000000000000000000000000000000000000815260040161114190612b38565b60405180910390fd5b50565b600033905090565b816004600083815260200190815260200160002060006101000a81548173ffffffffffffffffffffffffffffffffffffffff021916908373ffffffffffffffffffffffffffffffffffffffff160217905550808273ffffffffffffffffffffffffffffffffffffffff166111c883610ae8565b73ffffffffffffffffffffffffffffffffffffffff167f8c5be1e5ebec7d5bd14f71427d1e84f3dd0314c0f7b2291e5b200ac8c7c3b92560405160405180910390a45050565b60008061121a83610ae8565b90508073ffffffffffffffffffffffffffffffffffffffff168473ffffffffffffffffffffffffffffffffffffffff16148061125c575061125b8185610dc2565b5b8061129a57508373ffffffffffffffffffffffffffffffffffffffff166112828461056e565b73ffffffffffffffffffffffffffffffffffffffff16145b91505092915050565b8273ffffffffffffffffffffffffffffffffffffffff166112c382610ae8565b73ffffffffffffffffffffffffffffffffffffffff1614611319576040517f08c379a000000000000000000000000000000000000000000000000000000000815260040161131090612e82565b60405180910390fd5b600073ffffffffffffffffffffffffffffffffffffffff168273ffffffffffffffffffffffffffffffffffffffff1603611388576040517f08c379a000000000000000000000000000000000000000000000000000000000815260040161137f90612f14565b60405180910390fd5b611393838383611a8d565b61139e600082611155565b6001600360008573ffffffffffffffffffffffffffffffffffffffff1673ffffffffffffffffffffffffffffffffffffffff16815260200190815260200160002060008282546113ee9190612ddc565b925050819055506001600360008473ffffffffffffffffffffffffffffffffffffffff1673ffffffffffffffffffffffffffffffffffffffff16815260200190815260200160002060008282546114459190612f34565b92505081905550816002600083815260200190815260200160002060006101000a81548173ffffffffffffffffffffffffffffffffffffffff021916908373ffffffffffffffffffffffffffffffffffffffff160217905550808273ffffffffffffffffffffffffffffffffffffffff168473ffffffffffffffffffffffffffffffffffffffff167fddf252ad1be2c89b69c2b068fc378daa952ba7f163c4a11628f55a4df523b3ef60405160405180910390a4611504838383611a92565b505050565b600073ffffffffffffffffffffffffffffffffffffffff168273ffffffffffffffffffffffffffffffffffffffff1603611578576040517f08c379a000000000000000000000000000000000000000000000000000000000815260040161156f90612fd6565b60405180910390fd5b61158181611a21565b156115c1576040517f08c379a00000000000000000000000000000000000000000000000000000000081526004016115b890613042565b60405180910390fd5b6115cd60008383611a8d565b6001600360008473ffffffffffffffffffffffffffffffffffffffff1673ffffffffffffffffffffffffffffffffffffffff168152602001908152602001600020600082825461161d9190612f34565b92505081905550816002600083815260200190815260200160002060006101000a81548173ffffffffffffffffffffffffffffffffffffffff021916908373ffffffffffffffffffffffffffffffffffffffff160217905550808273ffffffffffffffffffffffffffffffffffffffff16600073ffffffffffffffffffffffffffffffffffffffff167fddf252ad1be2c89b69c2b068fc378daa952ba7f163c4a11628f55a4df523b3ef60405160405180910390a46116de60008383611a92565b5050565b8173ffffffffffffffffffffffffffffffffffffffff168373ffffffffffffffffffffffffffffffffffffffff1603611750576040517f08c379a0000000000000000000000000000000000000000000000000000000008152600401611747906130ae565b60405180910390fd5b80600560008573ffffffffffffffffffffffffffffffffffffffff1673ffffffffffffffffffffffffffffffffffffffff16815260200190815260200160002060008473ffffffffffffffffffffffffffffffffffffffff1673ffffffffffffffffffffffffffffffffffffffff16815260200190815260200160002060006101000a81548160ff0219169083151502179055508173ffffffffffffffffffffffffffffffffffffffff168373ffffffffffffffffffffffffffffffffffffffff167f17307eab39ab6107e8899845ad3d59bd9653f200f220920489ca2b5937696c31836040516118419190611d33565b60405180910390a3505050565b6118598484846112a3565b61186584848484611a97565b6118a4576040517f08c379a000000000000000000000000000000000000000000000000000000000815260040161189b90613140565b60405180910390fd5b50505050565b606060405180602001604052806000815250905090565b606060008203611908576040518060400160405280600181526020017f30000000000000000000000000000000000000000000000000000000000000008152509050611a1c565b600082905060005b6000821461193a57808061192390612826565b915050600a826119339190612dab565b9150611910565b60008167ffffffffffffffff81111561195657611955612204565b5b6040519080825280601f01601f1916602001820160405280156119885781602001600182028036833780820191505090505b5090505b60008514611a15576001826119a19190612ddc565b9150600a856119b09190613160565b60306119bc9190612f34565b60f81b8183815181106119d2576119d16127c8565b5b60200101907effffffffffffffffffffffffffffffffffffffffffffffffffffffffffffff1916908160001a905350600a85611a0e9190612dab565b945061198c565b8093505050505b919050565b60008073ffffffffffffffffffffffffffffffffffffffff166002600084815260200190815260200160002060009054906101000a900473ffffffffffffffffffffffffffffffffffffffff1673ffffffffffffffffffffffffffffffffffffffff1614159050919050565b505050565b505050565b6000611ab88473ffffffffffffffffffffffffffffffffffffffff16611c1e565b15611c11578373ffffffffffffffffffffffffffffffffffffffff1663150b7a02611ae161114d565b8786866040518563ffffffff1660e01b8152600401611b0394939291906131e6565b6020604051808303816000875af1925050508015611b3f57506040513d601f19601f82011682018060405250810190611b3c9190613247565b60015b611bc1573d8060008114611b6f576040519150601f19603f3d011682016040523d82523d6000602084013e611b74565b606091505b506000815103611bb9576040517f08c379a0000000000000000000000000000000000000000000000000000000008152600401611bb090613140565b60405180910390fd5b805181602001fd5b63150b7a0260e01b7bffffffffffffffffffffffffffffffffffffffffffffffffffffffff1916817bffffffffffffffffffffffffffffffffffffffffffffffffffffffff191614915050611c16565b600190505b949350505050565b6000808273ffffffffffffffffffffffffffffffffffffffff163b119050919050565b6040518060800160405280600073ffffffffffffffffffffffffffffffffffffffff1681526020016000815260200160608152602001600081525090565b6000604051905090565b600080fd5b600080fd5b60007fffffffff0000000000000000000000000000000000000000000000000000000082169050919050565b611cc881611c93565b8114611cd357600080fd5b50565b600081359050611ce581611cbf565b92915050565b600060208284031215611d0157611d00611c89565b5b6000611d0f84828501611cd6565b91505092915050565b60008115159050919050565b611d2d81611d18565b82525050565b6000602082019050611d486000830184611d24565b92915050565b600081519050919050565b600082825260208201905092915050565b60005b83811015611d88578082015181840152602081019050611d6d565b83811115611d97576000848401525b50505050565b6000601f19601f8301169050919050565b6000611db982611d4e565b611dc38185611d59565b9350611dd3818560208601611d6a565b611ddc81611d9d565b840191505092915050565b60006020820190508181036000830152611e018184611dae565b905092915050565b6000819050919050565b611e1c81611e09565b8114611e2757600080fd5b50565b600081359050611e3981611e13565b92915050565b600060208284031215611e5557611e54611c89565b5b6000611e6384828501611e2a565b91505092915050565b600073ffffffffffffffffffffffffffffffffffffffff82169050919050565b6000611e9782611e6c565b9050919050565b611ea781611e8c565b82525050565b6000602082019050611ec26000830184611e9e565b92915050565b611ed181611e8c565b8114611edc57600080fd5b50565b600081359050611eee81611ec8565b92915050565b60008060408385031215611f0b57611f0a611c89565b5b6000611f1985828601611edf565b9250506020611f2a85828601611e2a565b9150509250929050565b600080600060608486031215611f4d57611f4c611c89565b5b6000611f5b86828701611edf565b9350506020611f6c86828701611edf565b9250506040611f7d86828701611e2a565b9150509250925092565b600081519050919050565b600082825260208201905092915050565b6000819050602082019050919050565b611fbc81611e8c565b82525050565b611fcb81611e09565b82525050565b600082825260208201905092915050565b6000611fed82611d4e565b611ff78185611fd1565b9350612007818560208601611d6a565b61201081611d9d565b840191505092915050565b60006080830160008301516120336000860182611fb3565b5060208301516120466020860182611fc2565b506040830151848203604086015261205e8282611fe2565b91505060608301516120736060860182611fc2565b508091505092915050565b600061208a838361201b565b905092915050565b6000602082019050919050565b60006120aa82611f87565b6120b48185611f92565b9350836020820285016120c685611fa3565b8060005b8581101561210257848403895281516120e3858261207e565b94506120ee83612092565b925060208a019950506001810190506120ca565b50829750879550505050505092915050565b600081519050919050565b600082825260208201905092915050565b6000819050602082019050919050565b600061214c8383611fb3565b60208301905092915050565b6000602082019050919050565b600061217082612114565b61217a818561211f565b935061218583612130565b8060005b838110156121b657815161219d8882612140565b97506121a883612158565b925050600181019050612189565b5085935050505092915050565b600060408201905081810360008301526121dd818561209f565b905081810360208301526121f18184612165565b90509392505050565b600080fd5b600080fd5b7f4e487b7100000000000000000000000000000000000000000000000000000000600052604160045260246000fd5b61223c82611d9d565b810181811067ffffffffffffffff8211171561225b5761225a612204565b5b80604052505050565b600061226e611c7f565b905061227a8282612233565b919050565b600067ffffffffffffffff82111561229a57612299612204565b5b6122a382611d9d565b9050602081019050919050565b82818337600083830152505050565b60006122d26122cd8461227f565b612264565b9050828152602081018484840111156122ee576122ed6121ff565b5b6122f98482856122b0565b509392505050565b600082601f830112612316576123156121fa565b5b81356123268482602086016122bf565b91505092915050565b6000806040838503121561234657612345611c89565b5b600083013567ffffffffffffffff81111561236457612363611c8e565b5b61237085828601612301565b925050602061238185828601611e2a565b9150509250929050565b6000602082840312156123a1576123a0611c89565b5b60006123af84828501611edf565b91505092915050565b6123c181611e09565b82525050565b60006020820190506123dc60008301846123b8565b92915050565b6123eb81611d18565b81146123f657600080fd5b50565b600081359050612408816123e2565b92915050565b6000806040838503121561242557612424611c89565b5b600061243385828601611edf565b9250506020612444858286016123f9565b9150509250929050565b600067ffffffffffffffff82111561246957612468612204565b5b61247282611d9d565b9050602081019050919050565b600061249261248d8461244e565b612264565b9050828152602081018484840111156124ae576124ad6121ff565b5b6124b98482856122b0565b509392505050565b600082601f8301126124d6576124d56121fa565b5b81356124e684826020860161247f565b91505092915050565b6000806000806080858703121561250957612508611c89565b5b600061251787828801611edf565b945050602061252887828801611edf565b935050604061253987828801611e2a565b925050606085013567ffffffffffffffff81111561255a57612559611c8e565b5b612566878288016124c1565b91505092959194509250565b6000806040838503121561258957612588611c89565b5b600061259785828601611edf565b92505060206125a885828601611edf565b9150509250929050565b7f4e487b7100000000000000000000000000000000000000000000000000000000600052602260045260246000fd5b600060028204905060018216806125f957607f821691505b60208210810361260c5761260b6125b2565b5b50919050565b7f4552433732313a20617070726f76616c20746f2063757272656e74206f776e6560008201527f7200000000000000000000000000000000000000000000000000000000000000602082015250565b600061266e602183611d59565b915061267982612612565b604082019050919050565b6000602082019050818103600083015261269d81612661565b9050919050565b7f4552433732313a20617070726f76652063616c6c6572206973206e6f7420746f60008201527f6b656e206f776e6572206e6f7220617070726f76656420666f7220616c6c0000602082015250565b6000612700603e83611d59565b915061270b826126a4565b604082019050919050565b6000602082019050818103600083015261272f816126f3565b9050919050565b7f4552433732313a2063616c6c6572206973206e6f7420746f6b656e206f776e6560008201527f72206e6f7220617070726f766564000000000000000000000000000000000000602082015250565b6000612792602e83611d59565b915061279d82612736565b604082019050919050565b600060208201905081810360008301526127c181612785565b9050919050565b7f4e487b7100000000000000000000000000000000000000000000000000000000600052603260045260246000fd5b7f4e487b7100000000000000000000000000000000000000000000000000000000600052601160045260246000fd5b600061283182611e09565b91507fffffffffffffffffffffffffffffffffffffffffffffffffffffffffffffffff8203612863576128626127f7565b5b600182019050919050565b60008190508160005260206000209050919050565b60006020601f8301049050919050565b600082821b905092915050565b6000600883026128d07fffffffffffffffffffffffffffffffffffffffffffffffffffffffffffffffff82612893565b6128da8683612893565b95508019841693508086168417925050509392505050565b6000819050919050565b600061291761291261290d84611e09565b6128f2565b611e09565b9050919050565b6000819050919050565b612931836128fc565b61294561293d8261291e565b8484546128a0565b825550505050565b600090565b61295a61294d565b612965818484612928565b505050565b5b818110156129895761297e600082612952565b60018101905061296b565b5050565b601f8211156129ce5761299f8161286e565b6129a884612883565b810160208510156129b7578190505b6129cb6129c385612883565b83018261296a565b50505b505050565b600082821c905092915050565b60006129f1600019846008026129d3565b1980831691505092915050565b6000612a0a83836129e0565b9150826002028217905092915050565b612a2382611d4e565b67ffffffffffffffff811115612a3c57612a3b612204565b5b612a4682546125e1565b612a5182828561298d565b600060209050601f831160018114612a845760008415612a72578287015190505b612a7c85826129fe565b865550612ae4565b601f198416612a928661286e565b60005b82811015612aba57848901518255600182019150602085019450602081019050612a95565b86831015612ad75784890151612ad3601f8916826129e0565b8355505b6001600288020188555050505b505050505050565b7f4552433732313a20696e76616c696420746f6b656e2049440000000000000000600082015250565b6000612b22601883611d59565b9150612b2d82612aec565b602082019050919050565b60006020820190508181036000830152612b5181612b15565b9050919050565b7f4552433732313a2061646472657373207a65726f206973206e6f74206120766160008201527f6c6964206f776e65720000000000000000000000000000000000000000000000602082015250565b6000612bb4602983611d59565b9150612bbf82612b58565b604082019050919050565b60006020820190508181036000830152612be381612ba7565b9050919050565b600081905092915050565b6000612c0082611d4e565b612c0a8185612bea565b9350612c1a818560208601611d6a565b80840191505092915050565b6000612c328285612bf5565b9150612c3e8284612bf5565b91508190509392505050565b7f506f737420646f6573206e6f7420657869737400000000000000000000000000600082015250565b6000612c80601383611d59565b9150612c8b82612c4a565b602082019050919050565b60006020820190508181036000830152612caf81612c73565b9050919050565b7f5075726368617365207072696365206e6f74206d657400000000000000000000600082015250565b6000612cec601683611d59565b9150612cf782612cb6565b602082019050919050565b60006020820190508181036000830152612d1b81612cdf565b9050919050565b6000612d2d82611e09565b9150612d3883611e09565b9250817fffffffffffffffffffffffffffffffffffffffffffffffffffffffffffffffff0483118215151615612d7157612d706127f7565b5b828202905092915050565b7f4e487b7100000000000000000000000000000000000000000000000000000000600052601260045260246000fd5b6000612db682611e09565b9150612dc183611e09565b925082612dd157612dd0612d7c565b5b828204905092915050565b6000612de782611e09565b9150612df283611e09565b925082821015612e0557612e046127f7565b5b828203905092915050565b7f4552433732313a207472616e736665722066726f6d20696e636f72726563742060008201527f6f776e6572000000000000000000000000000000000000000000000000000000602082015250565b6000612e6c602583611d59565b9150612e7782612e10565b604082019050919050565b60006020820190508181036000830152612e9b81612e5f565b9050919050565b7f4552433732313a207472616e7366657220746f20746865207a65726f2061646460008201527f7265737300000000000000000000000000000000000000000000000000000000602082015250565b6000612efe602483611d59565b9150612f0982612ea2565b604082019050919050565b60006020820190508181036000830152612f2d81612ef1565b9050919050565b6000612f3f82611e09565b9150612f4a83611e09565b9250827fffffffffffffffffffffffffffffffffffffffffffffffffffffffffffffffff03821115612f7f57612f7e6127f7565b5b828201905092915050565b7f4552433732313a206d696e7420746f20746865207a65726f2061646472657373600082015250565b6000612fc0602083611d59565b9150612fcb82612f8a565b602082019050919050565b60006020820190508181036000830152612fef81612fb3565b9050919050565b7f4552433732313a20746f6b656e20616c7265616479206d696e74656400000000600082015250565b600061302c601c83611d59565b915061303782612ff6565b602082019050919050565b6000602082019050818103600083015261305b8161301f565b9050919050565b7f4552433732313a20617070726f766520746f2063616c6c657200000000000000600082015250565b6000613098601983611d59565b91506130a382613062565b602082019050919050565b600060208201905081810360008301526130c78161308b565b9050919050565b7f4552433732313a207472616e7366657220746f206e6f6e20455243373231526560008201527f63656976657220696d706c656d656e7465720000000000000000000000000000602082015250565b600061312a603283611d59565b9150613135826130ce565b604082019050919050565b600060208201905081810360008301526131598161311d565b9050919050565b600061316b82611e09565b915061317683611e09565b92508261318657613185612d7c565b5b828206905092915050565b600081519050919050565b600082825260208201905092915050565b60006131b882613191565b6131c2818561319c565b93506131d2818560208601611d6a565b6131db81611d9d565b840191505092915050565b60006080820190506131fb6000830187611e9e565b6132086020830186611e9e565b61321560408301856123b8565b818103606083015261322781846131ad565b905095945050505050565b60008151905061324181611cbf565b92915050565b60006020828403121561325d5761325c611c89565b5b600061326b84828501613232565b9150509291505056fea26469706673582212200f184c7753002cb4f96dc44a502aec0a244b0c51d856a45521e66e1d6d3e4ea764736f6c634300080f0033",
  "immutableReferences": {},
  "source": "// SPDX-License-Identifier: MIT\npragma solidity >=0.4.22 <0.9.0;\n\nimport '@openzeppelin/contracts/token/ERC721/ERC721.sol';\n\ncontract Social is ERC721 {\n    uint256 id;\n\n    struct Post {\n\n        address originalPoster;\n\n        uint256 price;\n\n        string text;\n        uint256 id;\n    }\n\n    mapping(uint256 => Post) idToPost;\n\n    constructor() ERC721('SocialDapp', 'SDP') {\n      id = 0;\n    }\n\n    function post(string memory text, uint256 price) external {\n        _mint(msg.sender, id);\n\n        idToPost[id] = Post(msg.sender, price, text, id);\n\n        id++;\n    }\n\n    function getPosts() public view returns(Post [] memory, address [] memory ){\n        Post[] memory posts = new Post[](id);\n\n        address[] memory owners = new address[](id);\n\n        for(uint256 i = 0; i < id; i++){\n\n            Post memory p = idToPost[i];\n\n            posts[i] = Post(p.originalPoster, p.price, p.text, p.id);\n\n            owners[i] = ownerOf(i);\n\n        }\n\n        return (posts, owners);\n    }\n\n    function purchase(uint256 postId) external payable {\n        Post memory targetPost = idToPost[postId];\n\n        require(targetPost.originalPoster != address(0), \"Post does not exist\");\n\n        require(msg.value >= targetPost.price, \"Purchase price not met\");\n\n        uint256 royalty = (msg.value * 500) / 10000;\n\n        payable(targetPost.originalPoster).call{value : royalty};\n\n        payable(ownerOf(postId)).call{value : msg.value - royalty};\n\n        _transfer(ownerOf(postId), msg.sender, postId);\n\n    }\n}",
  "sourcePath": "/Users/user/socialDapp/contracts/Social.sol",
  "compiler": {
    "name": "solc",
    "version": "0.8.15+commit.e14f2714.Emscripten.clang"
  },
  "schemaVersion": "3.4.8",
  "updatedAt": "2022-07-03T15:26:19.297Z",
  "devdoc": {
    "kind": "dev",
    "methods": {
      "approve(address,uint256)": {
        "details": "See {IERC721-approve}."
      },
      "balanceOf(address)": {
        "details": "See {IERC721-balanceOf}."
      },
      "getApproved(uint256)": {
        "details": "See {IERC721-getApproved}."
      },
      "isApprovedForAll(address,address)": {
        "details": "See {IERC721-isApprovedForAll}."
      },
      "name()": {
        "details": "See {IERC721Metadata-name}."
      },
      "ownerOf(uint256)": {
        "details": "See {IERC721-ownerOf}."
      },
      "safeTransferFrom(address,address,uint256)": {
        "details": "See {IERC721-safeTransferFrom}."
      },
      "safeTransferFrom(address,address,uint256,bytes)": {
        "details": "See {IERC721-safeTransferFrom}."
      },
      "setApprovalForAll(address,bool)": {
        "details": "See {IERC721-setApprovalForAll}."
      },
      "supportsInterface(bytes4)": {
        "details": "See {IERC165-supportsInterface}."
      },
      "symbol()": {
        "details": "See {IERC721Metadata-symbol}."
      },
      "tokenURI(uint256)": {
        "details": "See {IERC721Metadata-tokenURI}."
      },
      "transferFrom(address,address,uint256)": {
        "details": "See {IERC721-transferFrom}."
      }
    },
    "version": 1
  },
  "userdoc": {
    "kind": "user",
    "methods": {},
    "version": 1
  }
}